{"abi":[{"type":"constructor","inputs":[],"stateMutability":"nonpayable"},{"type":"receive","stateMutability":"payable"},{"type":"function","name":"createGame","inputs":[{"name":"_gameId","type":"string","internalType":"string"},{"name":"_opponent","type":"address","internalType":"address"}],"outputs":[],"stateMutability":"payable"},{"type":"function","name":"emergencyWithdraw","inputs":[],"outputs":[],"stateMutability":"nonpayable"},{"type":"function","name":"games","inputs":[{"name":"","type":"string","internalType":"string"}],"outputs":[{"name":"gameId","type":"string","internalType":"string"},{"name":"creator","type":"address","internalType":"address"},{"name":"opponent","type":"address","internalType":"address"},{"name":"winner","type":"address","internalType":"address"},{"name":"wagerAmount","type":"uint256","internalType":"uint256"},{"name":"creatorPaid","type":"bool","internalType":"bool"},{"name":"opponentPaid","type":"bool","internalType":"bool"},{"name":"settled","type":"bool","internalType":"bool"},{"name":"createdAt","type":"uint256","internalType":"uint256"}],"stateMutability":"view"},{"type":"function","name":"getContractBalance","inputs":[],"outputs":[{"name":"","type":"uint256","internalType":"uint256"}],"stateMutability":"view"},{"type":"function","name":"getGame","inputs":[{"name":"_gameId","type":"string","internalType":"string"}],"outputs":[{"name":"","type":"tuple","internalType":"struct ChessEscrow.Game","components":[{"name":"gameId","type":"string","internalType":"string"},{"name":"creator","type":"address","internalType":"address"},{"name":"opponent","type":"address","internalType":"address"},{"name":"winner","type":"address","internalType":"address"},{"name":"wagerAmount","type":"uint256","internalType":"uint256"},{"name":"creatorPaid","type":"bool","internalType":"bool"},{"name":"opponentPaid","type":"bool","internalType":"bool"},{"name":"settled","type":"bool","internalType":"bool"},{"name":"createdAt","type":"uint256","internalType":"uint256"}]}],"stateMutability":"view"},{"type":"function","name":"isGameReadyToSettle","inputs":[{"name":"_gameId","type":"string","internalType":"string"}],"outputs":[{"name":"","type":"bool","internalType":"bool"}],"stateMutability":"view"},{"type":"function","name":"joinGame","inputs":[{"name":"_gameId","type":"string","internalType":"string"}],"outputs":[],"stateMutability":"payable"},{"type":"function","name":"owner","inputs":[],"outputs":[{"name":"","type":"address","internalType":"address"}],"stateMutability":"view"},{"type":"function","name":"pendingWithdrawals","inputs":[{"name":"","type":"address","internalType":"address"}],"outputs":[{"name":"","type":"uint256","internalType":"uint256"}],"stateMutability":"view"},{"type":"function","name":"settleGame","inputs":[{"name":"_gameId","type":"string","internalType":"string"},{"name":"_winner","type":"address","internalType":"address"}],"outputs":[],"stateMutability":"nonpayable"},{"type":"function","name":"settler","inputs":[],"outputs":[{"name":"","type":"address","internalType":"address"}],"stateMutability":"view"},{"type":"function","name":"updateSettler","inputs":[{"name":"_newSettler","type":"address","internalType":"address"}],"outputs":[],"stateMutability":"nonpayable"},{"type":"function","name":"withdrawPending","inputs":[],"outputs":[],"stateMutability":"nonpayable"},{"type":"event","name":"GameCreated","inputs":[{"name":"gameId","type":"bytes32","indexed":true,"internalType":"bytes32"},{"name":"creator","type":"address","indexed":true,"internalType":"address"},{"name":"wagerAmount","type":"uint256","indexed":false,"internalType":"uint256"}],"anonymous":false},{"type":"event","name":"GameJoined","inputs":[{"name":"gameId","type":"bytes32","indexed":true,"internalType":"bytes32"},{"name":"joiner","type":"address","indexed":true,"internalType":"address"},{"name":"wagerAmount","type":"uint256","indexed":false,"internalType":"uint256"}],"anonymous":false},{"type":"event","name":"GameSettled","inputs":[{"name":"gameId","type":"bytes32","indexed":true,"internalType":"bytes32"},{"name":"winner","type":"address","indexed":true,"internalType":"address"},{"name":"totalWinnings","type":"uint256","indexed":false,"internalType":"uint256"}],"anonymous":false},{"type":"event","name":"SettlerUpdated","inputs":[{"name":"oldSettler","type":"address","indexed":true,"internalType":"address"},{"name":"newSettler","type":"address","indexed":true,"internalType":"address"}],"anonymous":false}],"bytecode":{"object":"0x6080604052348015600e575f5ffd5b50335f5f6101000a81548173ffffffffffffffffffffffffffffffffffffffff021916908373ffffffffffffffffffffffffffffffffffffffff1602179055503360015f6101000a81548173ffffffffffffffffffffffffffffffffffffffff021916908373ffffffffffffffffffffffffffffffffffffffff160217905550612ce18061009b5f395ff3fe6080604052600436106100c5575f3560e01c80636f9fb98a1161007e578063a2e0f63d11610058578063a2e0f63d14610262578063ab221a761461027e578063db2e21bc146102a8578063f3f43703146102be576100cc565b80636f9fb98a146101f85780637edbceb1146102225780638da5cb5b14610238576100cc565b80631b2d199b146100d05780631d54becc146100f85780633d536a2e146101345780634d92f652146101505780636d149b0f1461018c5780636d20931a146101b4576100cc565b366100cc57005b5f5ffd5b3480156100db575f5ffd5b506100f660048036038101906100f19190611cb2565b6102fa565b005b348015610103575f5ffd5b5061011e60048036038101906101199190611d0c565b610770565b60405161012b9190611d6d565b60405180910390f35b61014e60048036038101906101499190611d0c565b610a28565b005b34801561015b575f5ffd5b5061017660048036038101906101719190611d0c565b610df4565b6040516101839190611ede565b60405180910390f35b348015610197575f5ffd5b506101b260048036038101906101ad9190611efe565b61108f565b005b3480156101bf575f5ffd5b506101da60048036038101906101d59190611d0c565b61124e565b6040516101ef99989796959493929190611f8f565b60405180910390f35b348015610203575f5ffd5b5061020c6113b9565b6040516102199190612021565b60405180910390f35b34801561022d575f5ffd5b506102366113c0565b005b348015610243575f5ffd5b5061024c611531565b604051610259919061203a565b60405180910390f35b61027c60048036038101906102779190611cb2565b611555565b005b348015610289575f5ffd5b506102926118a5565b60405161029f919061203a565b60405180910390f35b3480156102b3575f5ffd5b506102bc6118ca565b005b3480156102c9575f5ffd5b506102e460048036038101906102df9190611efe565b611a6a565b6040516102f19190612021565b60405180910390f35b60015f9054906101000a900473ffffffffffffffffffffffffffffffffffffffff1673ffffffffffffffffffffffffffffffffffffffff163373ffffffffffffffffffffffffffffffffffffffff1614610389576040517f08c379a0000000000000000000000000000000000000000000000000000000008152600401610380906120c3565b60405180910390fd5b815f60028260405161039b919061211b565b90815260200160405180910390205f0180546103b69061215e565b9050116103f8576040517f08c379a00000000000000000000000000000000000000000000000000000000081526004016103ef906121d8565b60405180910390fd5b82600281604051610409919061211b565b908152602001604051809103902060050160029054906101000a900460ff1615610468576040517f08c379a000000000000000000000000000000000000000000000000000000000815260040161045f90612240565b60405180910390fd5b5f600285604051610479919061211b565b90815260200160405180910390209050806005015f9054906101000a900460ff1680156104b457508060050160019054906101000a900460ff165b6104f3576040517f08c379a00000000000000000000000000000000000000000000000000000000081526004016104ea906122ce565b60405180910390fd5b806001015f9054906101000a900473ffffffffffffffffffffffffffffffffffffffff1673ffffffffffffffffffffffffffffffffffffffff168473ffffffffffffffffffffffffffffffffffffffff16148061059e5750806002015f9054906101000a900473ffffffffffffffffffffffffffffffffffffffff1673ffffffffffffffffffffffffffffffffffffffff168473ffffffffffffffffffffffffffffffffffffffff16145b6105dd576040517f08c379a00000000000000000000000000000000000000000000000000000000081526004016105d49061235c565b60405180910390fd5b5f600282600401546105ef91906123a7565b905060018260050160026101000a81548160ff02191690831515021790555084826003015f6101000a81548173ffffffffffffffffffffffffffffffffffffffff021916908373ffffffffffffffffffffffffffffffffffffffff1602179055505f8573ffffffffffffffffffffffffffffffffffffffff168260405161067590612415565b5f6040518083038185875af1925050503d805f81146106af576040519150601f19603f3d011682016040523d82523d5f602084013e6106b4565b606091505b5050905080610711578160035f8873ffffffffffffffffffffffffffffffffffffffff1673ffffffffffffffffffffffffffffffffffffffff1681526020019081526020015f205f8282546107099190612429565b925050819055505b8573ffffffffffffffffffffffffffffffffffffffff1687805190602001207ffce0354c00ab4af4f14f27d7f87c8dd1af58253004b4438717419da2b4a899dd8460405161075f9190612021565b60405180910390a350505050505050565b5f815f600282604051610783919061211b565b90815260200160405180910390205f01805461079e9061215e565b9050116107e0576040517f08c379a00000000000000000000000000000000000000000000000000000000081526004016107d7906121d8565b60405180910390fd5b5f6002846040516107f1919061211b565b9081526020016040518091039020604051806101200160405290815f8201805461081a9061215e565b80601f01602080910402602001604051908101604052809291908181526020018280546108469061215e565b80156108915780601f1061086857610100808354040283529160200191610891565b820191905f5260205f20905b81548152906001019060200180831161087457829003601f168201915b50505050508152602001600182015f9054906101000a900473ffffffffffffffffffffffffffffffffffffffff1673ffffffffffffffffffffffffffffffffffffffff1673ffffffffffffffffffffffffffffffffffffffff168152602001600282015f9054906101000a900473ffffffffffffffffffffffffffffffffffffffff1673ffffffffffffffffffffffffffffffffffffffff1673ffffffffffffffffffffffffffffffffffffffff168152602001600382015f9054906101000a900473ffffffffffffffffffffffffffffffffffffffff1673ffffffffffffffffffffffffffffffffffffffff1673ffffffffffffffffffffffffffffffffffffffff16815260200160048201548152602001600582015f9054906101000a900460ff161515151581526020016005820160019054906101000a900460ff161515151581526020016005820160029054906101000a900460ff1615151515815260200160068201548152505090508060a001518015610a1157508060c001515b8015610a1f57508060e00151155b92505050919050565b805f600282604051610a3a919061211b565b90815260200160405180910390205f018054610a559061215e565b905011610a97576040517f08c379a0000000000000000000000000000000000000000000000000000000008152600401610a8e906121d8565b60405180910390fd5b81600281604051610aa8919061211b565b908152602001604051809103902060050160029054906101000a900460ff1615610b07576040517f08c379a0000000000000000000000000000000000000000000000000000000008152600401610afe90612240565b60405180910390fd5b5f600284604051610b18919061211b565b908152602001604051809103902090508060050160019054906101000a900460ff1615610b7a576040517f08c379a0000000000000000000000000000000000000000000000000000000008152600401610b71906124a6565b60405180910390fd5b80600401543414610bc0576040517f08c379a0000000000000000000000000000000000000000000000000000000008152600401610bb790612534565b60405180910390fd5b806001015f9054906101000a900473ffffffffffffffffffffffffffffffffffffffff1673ffffffffffffffffffffffffffffffffffffffff163373ffffffffffffffffffffffffffffffffffffffff1603610c51576040517f08c379a0000000000000000000000000000000000000000000000000000000008152600401610c48906125c2565b60405180910390fd5b5f73ffffffffffffffffffffffffffffffffffffffff16816002015f9054906101000a900473ffffffffffffffffffffffffffffffffffffffff1673ffffffffffffffffffffffffffffffffffffffff1614610d3957806002015f9054906101000a900473ffffffffffffffffffffffffffffffffffffffff1673ffffffffffffffffffffffffffffffffffffffff163373ffffffffffffffffffffffffffffffffffffffff1614610d38576040517f08c379a0000000000000000000000000000000000000000000000000000000008152600401610d2f9061262a565b60405180910390fd5b5b33816002015f6101000a81548173ffffffffffffffffffffffffffffffffffffffff021916908373ffffffffffffffffffffffffffffffffffffffff16021790555060018160050160016101000a81548160ff0219169083151502179055503373ffffffffffffffffffffffffffffffffffffffff1684805190602001207f89d7361a03723398027faf3ff0f6074a2477178370f48fc591c9d88510d3e58334604051610de69190612021565b60405180910390a350505050565b610dfc611a7f565b815f600282604051610e0e919061211b565b90815260200160405180910390205f018054610e299061215e565b905011610e6b576040517f08c379a0000000000000000000000000000000000000000000000000000000008152600401610e62906121d8565b60405180910390fd5b600283604051610e7b919061211b565b9081526020016040518091039020604051806101200160405290815f82018054610ea49061215e565b80601f0160208091040260200160405190810160405280929190818152602001828054610ed09061215e565b8015610f1b5780601f10610ef257610100808354040283529160200191610f1b565b820191905f5260205f20905b815481529060010190602001808311610efe57829003601f168201915b50505050508152602001600182015f9054906101000a900473ffffffffffffffffffffffffffffffffffffffff1673ffffffffffffffffffffffffffffffffffffffff1673ffffffffffffffffffffffffffffffffffffffff168152602001600282015f9054906101000a900473ffffffffffffffffffffffffffffffffffffffff1673ffffffffffffffffffffffffffffffffffffffff1673ffffffffffffffffffffffffffffffffffffffff168152602001600382015f9054906101000a900473ffffffffffffffffffffffffffffffffffffffff1673ffffffffffffffffffffffffffffffffffffffff1673ffffffffffffffffffffffffffffffffffffffff16815260200160048201548152602001600582015f9054906101000a900460ff161515151581526020016005820160019054906101000a900460ff161515151581526020016005820160029054906101000a900460ff16151515158152602001600682015481525050915050919050565b5f5f9054906101000a900473ffffffffffffffffffffffffffffffffffffffff1673ffffffffffffffffffffffffffffffffffffffff163373ffffffffffffffffffffffffffffffffffffffff161461111d576040517f08c379a0000000000000000000000000000000000000000000000000000000008152600401611114906126b8565b60405180910390fd5b5f73ffffffffffffffffffffffffffffffffffffffff168173ffffffffffffffffffffffffffffffffffffffff160361118b576040517f08c379a000000000000000000000000000000000000000000000000000000000815260040161118290612720565b60405180910390fd5b5f60015f9054906101000a900473ffffffffffffffffffffffffffffffffffffffff1690508160015f6101000a81548173ffffffffffffffffffffffffffffffffffffffff021916908373ffffffffffffffffffffffffffffffffffffffff1602179055508173ffffffffffffffffffffffffffffffffffffffff168173ffffffffffffffffffffffffffffffffffffffff167f7c72fae177c59a6c85f9a5eca78d204b4a8ad5b668e5beb8c24464870af7160c60405160405180910390a35050565b6002818051602081018201805184825260208301602085012081835280955050505050505f91509050805f0180546112859061215e565b80601f01602080910402602001604051908101604052809291908181526020018280546112b19061215e565b80156112fc5780601f106112d3576101008083540402835291602001916112fc565b820191905f5260205f20905b8154815290600101906020018083116112df57829003601f168201915b505050505090806001015f9054906101000a900473ffffffffffffffffffffffffffffffffffffffff1690806002015f9054906101000a900473ffffffffffffffffffffffffffffffffffffffff1690806003015f9054906101000a900473ffffffffffffffffffffffffffffffffffffffff1690806004015490806005015f9054906101000a900460ff16908060050160019054906101000a900460ff16908060050160029054906101000a900460ff16908060060154905089565b5f47905090565b5f60035f3373ffffffffffffffffffffffffffffffffffffffff1673ffffffffffffffffffffffffffffffffffffffff1681526020019081526020015f205490505f8111611443576040517f08c379a000000000000000000000000000000000000000000000000000000000815260040161143a90612788565b60405180910390fd5b5f60035f3373ffffffffffffffffffffffffffffffffffffffff1673ffffffffffffffffffffffffffffffffffffffff1681526020019081526020015f20819055505f3373ffffffffffffffffffffffffffffffffffffffff16826040516114aa90612415565b5f6040518083038185875af1925050503d805f81146114e4576040519150601f19603f3d011682016040523d82523d5f602084013e6114e9565b606091505b505090508061152d576040517f08c379a0000000000000000000000000000000000000000000000000000000008152600401611524906127f0565b60405180910390fd5b5050565b5f5f9054906101000a900473ffffffffffffffffffffffffffffffffffffffff1681565b5f825111611598576040517f08c379a000000000000000000000000000000000000000000000000000000000815260040161158f90612858565b60405180910390fd5b5f6002836040516115a9919061211b565b90815260200160405180910390205f0180546115c49061215e565b905014611606576040517f08c379a00000000000000000000000000000000000000000000000000000000081526004016115fd906128c0565b60405180910390fd5b5f3411611648576040517f08c379a000000000000000000000000000000000000000000000000000000000815260040161163f9061294e565b60405180910390fd5b6040518061012001604052808381526020013373ffffffffffffffffffffffffffffffffffffffff1681526020018273ffffffffffffffffffffffffffffffffffffffff1681526020015f73ffffffffffffffffffffffffffffffffffffffff1681526020013481526020016001151581526020015f151581526020015f15158152602001428152506002836040516116e1919061211b565b90815260200160405180910390205f820151815f0190816117029190612b0c565b506020820151816001015f6101000a81548173ffffffffffffffffffffffffffffffffffffffff021916908373ffffffffffffffffffffffffffffffffffffffff1602179055506040820151816002015f6101000a81548173ffffffffffffffffffffffffffffffffffffffff021916908373ffffffffffffffffffffffffffffffffffffffff1602179055506060820151816003015f6101000a81548173ffffffffffffffffffffffffffffffffffffffff021916908373ffffffffffffffffffffffffffffffffffffffff1602179055506080820151816004015560a0820151816005015f6101000a81548160ff02191690831515021790555060c08201518160050160016101000a81548160ff02191690831515021790555060e08201518160050160026101000a81548160ff02191690831515021790555061010082015181600601559050503373ffffffffffffffffffffffffffffffffffffffff1682805190602001207e06379582cf33f082958411b512c6d1b9888095de98bc1f9532e3f165336152346040516118999190612021565b60405180910390a35050565b60015f9054906101000a900473ffffffffffffffffffffffffffffffffffffffff1681565b5f5f9054906101000a900473ffffffffffffffffffffffffffffffffffffffff1673ffffffffffffffffffffffffffffffffffffffff163373ffffffffffffffffffffffffffffffffffffffff1614611958576040517f08c379a000000000000000000000000000000000000000000000000000000000815260040161194f906126b8565b60405180910390fd5b5f4790505f811161199e576040517f08c379a000000000000000000000000000000000000000000000000000000000815260040161199590612c25565b60405180910390fd5b5f5f5f9054906101000a900473ffffffffffffffffffffffffffffffffffffffff1673ffffffffffffffffffffffffffffffffffffffff16826040516119e390612415565b5f6040518083038185875af1925050503d805f8114611a1d576040519150601f19603f3d011682016040523d82523d5f602084013e611a22565b606091505b5050905080611a66576040517f08c379a0000000000000000000000000000000000000000000000000000000008152600401611a5d90612c8d565b60405180910390fd5b5050565b6003602052805f5260405f205f915090505481565b604051806101200160405280606081526020015f73ffffffffffffffffffffffffffffffffffffffff1681526020015f73ffffffffffffffffffffffffffffffffffffffff1681526020015f73ffffffffffffffffffffffffffffffffffffffff1681526020015f81526020015f151581526020015f151581526020015f151581526020015f81525090565b5f604051905090565b5f5ffd5b5f5ffd5b5f5ffd5b5f5ffd5b5f601f19601f8301169050919050565b7f4e487b71000000000000000000000000000000000000000000000000000000005f52604160045260245ffd5b611b6a82611b24565b810181811067ffffffffffffffff82111715611b8957611b88611b34565b5b80604052505050565b5f611b9b611b0b565b9050611ba78282611b61565b919050565b5f67ffffffffffffffff821115611bc657611bc5611b34565b5b611bcf82611b24565b9050602081019050919050565b828183375f83830152505050565b5f611bfc611bf784611bac565b611b92565b905082815260208101848484011115611c1857611c17611b20565b5b611c23848285611bdc565b509392505050565b5f82601f830112611c3f57611c3e611b1c565b5b8135611c4f848260208601611bea565b91505092915050565b5f73ffffffffffffffffffffffffffffffffffffffff82169050919050565b5f611c8182611c58565b9050919050565b611c9181611c77565b8114611c9b575f5ffd5b50565b5f81359050611cac81611c88565b92915050565b5f5f60408385031215611cc857611cc7611b14565b5b5f83013567ffffffffffffffff811115611ce557611ce4611b18565b5b611cf185828601611c2b565b9250506020611d0285828601611c9e565b9150509250929050565b5f60208284031215611d2157611d20611b14565b5b5f82013567ffffffffffffffff811115611d3e57611d3d611b18565b5b611d4a84828501611c2b565b91505092915050565b5f8115159050919050565b611d6781611d53565b82525050565b5f602082019050611d805f830184611d5e565b92915050565b5f81519050919050565b5f82825260208201905092915050565b8281835e5f83830152505050565b5f611db882611d86565b611dc28185611d90565b9350611dd2818560208601611da0565b611ddb81611b24565b840191505092915050565b611def81611c77565b82525050565b5f819050919050565b611e0781611df5565b82525050565b611e1681611d53565b82525050565b5f61012083015f8301518482035f860152611e378282611dae565b9150506020830151611e4c6020860182611de6565b506040830151611e5f6040860182611de6565b506060830151611e726060860182611de6565b506080830151611e856080860182611dfe565b5060a0830151611e9860a0860182611e0d565b5060c0830151611eab60c0860182611e0d565b5060e0830151611ebe60e0860182611e0d565b50610100830151611ed3610100860182611dfe565b508091505092915050565b5f6020820190508181035f830152611ef68184611e1c565b905092915050565b5f60208284031215611f1357611f12611b14565b5b5f611f2084828501611c9e565b91505092915050565b5f82825260208201905092915050565b5f611f4382611d86565b611f4d8185611f29565b9350611f5d818560208601611da0565b611f6681611b24565b840191505092915050565b611f7a81611c77565b82525050565b611f8981611df5565b82525050565b5f610120820190508181035f830152611fa8818c611f39565b9050611fb7602083018b611f71565b611fc4604083018a611f71565b611fd16060830189611f71565b611fde6080830188611f80565b611feb60a0830187611d5e565b611ff860c0830186611d5e565b61200560e0830185611d5e565b612013610100830184611f80565b9a9950505050505050505050565b5f6020820190506120345f830184611f80565b92915050565b5f60208201905061204d5f830184611f71565b92915050565b7f4f6e6c7920736574746c65722063616e2063616c6c20746869732066756e63745f8201527f696f6e0000000000000000000000000000000000000000000000000000000000602082015250565b5f6120ad602383611f29565b91506120b882612053565b604082019050919050565b5f6020820190508181035f8301526120da816120a1565b9050919050565b5f81905092915050565b5f6120f582611d86565b6120ff81856120e1565b935061210f818560208601611da0565b80840191505092915050565b5f61212682846120eb565b915081905092915050565b7f4e487b71000000000000000000000000000000000000000000000000000000005f52602260045260245ffd5b5f600282049050600182168061217557607f821691505b60208210810361218857612187612131565b5b50919050565b7f47616d6520646f6573206e6f74206578697374000000000000000000000000005f82015250565b5f6121c2601383611f29565b91506121cd8261218e565b602082019050919050565b5f6020820190508181035f8301526121ef816121b6565b9050919050565b7f47616d6520616c726561647920736574746c65640000000000000000000000005f82015250565b5f61222a601483611f29565b9150612235826121f6565b602082019050919050565b5f6020820190508181035f8301526122578161221e565b9050919050565b7f426f746820706c6179657273206d7573742068617665207061696420746865695f8201527f7220776167657273000000000000000000000000000000000000000000000000602082015250565b5f6122b8602883611f29565b91506122c38261225e565b604082019050919050565b5f6020820190508181035f8301526122e5816122ac565b9050919050565b7f57696e6e6572206d757374206265206f6e65206f66207468652067616d6520705f8201527f61727469636970616e7473000000000000000000000000000000000000000000602082015250565b5f612346602b83611f29565b9150612351826122ec565b604082019050919050565b5f6020820190508181035f8301526123738161233a565b9050919050565b7f4e487b71000000000000000000000000000000000000000000000000000000005f52601160045260245ffd5b5f6123b182611df5565b91506123bc83611df5565b92508282026123ca81611df5565b915082820484148315176123e1576123e061237a565b5b5092915050565b5f81905092915050565b50565b5f6124005f836123e8565b915061240b826123f2565b5f82019050919050565b5f61241f826123f5565b9150819050919050565b5f61243382611df5565b915061243e83611df5565b92508282019050808211156124565761245561237a565b5b92915050565b7f47616d6520616c72656164792068617320616e206f70706f6e656e74000000005f82015250565b5f612490601c83611f29565b915061249b8261245c565b602082019050919050565b5f6020820190508181035f8301526124bd81612484565b9050919050565b7f576167657220616d6f756e74206d757374206d617463682067616d65207761675f8201527f6572000000000000000000000000000000000000000000000000000000000000602082015250565b5f61251e602283611f29565b9150612529826124c4565b604082019050919050565b5f6020820190508181035f83015261254b81612512565b9050919050565b7f43726561746f722063616e6e6f74206a6f696e207468656972206f776e2067615f8201527f6d65000000000000000000000000000000000000000000000000000000000000602082015250565b5f6125ac602283611f29565b91506125b782612552565b604082019050919050565b5f6020820190508181035f8301526125d9816125a0565b9050919050565b7f4f6e6c7920737065636966696564206f70706f6e656e742063616e206a6f696e5f82015250565b5f612614602083611f29565b915061261f826125e0565b602082019050919050565b5f6020820190508181035f83015261264181612608565b9050919050565b7f4f6e6c79206f776e65722063616e2063616c6c20746869732066756e6374696f5f8201527f6e00000000000000000000000000000000000000000000000000000000000000602082015250565b5f6126a2602183611f29565b91506126ad82612648565b604082019050919050565b5f6020820190508181035f8301526126cf81612696565b9050919050565b7f536574746c65722063616e6e6f74206265207a65726f206164647265737300005f82015250565b5f61270a601e83611f29565b9150612715826126d6565b602082019050919050565b5f6020820190508181035f830152612737816126fe565b9050919050565b7f4e6f2070656e64696e67207769746864726177616c73000000000000000000005f82015250565b5f612772601683611f29565b915061277d8261273e565b602082019050919050565b5f6020820190508181035f83015261279f81612766565b9050919050565b7f5769746864726177616c206661696c65640000000000000000000000000000005f82015250565b5f6127da601183611f29565b91506127e5826127a6565b602082019050919050565b5f6020820190508181035f830152612807816127ce565b9050919050565b7f496e76616c69642067616d6520494400000000000000000000000000000000005f82015250565b5f612842600f83611f29565b915061284d8261280e565b602082019050919050565b5f6020820190508181035f83015261286f81612836565b9050919050565b7f47616d6520616c726561647920657869737473000000000000000000000000005f82015250565b5f6128aa601383611f29565b91506128b582612876565b602082019050919050565b5f6020820190508181035f8301526128d78161289e565b9050919050565b7f576167657220616d6f756e74206d7573742062652067726561746572207468615f8201527f6e20300000000000000000000000000000000000000000000000000000000000602082015250565b5f612938602383611f29565b9150612943826128de565b604082019050919050565b5f6020820190508181035f8301526129658161292c565b9050919050565b5f819050815f5260205f209050919050565b5f6020601f8301049050919050565b5f82821b905092915050565b5f600883026129c87fffffffffffffffffffffffffffffffffffffffffffffffffffffffffffffffff8261298d565b6129d2868361298d565b95508019841693508086168417925050509392505050565b5f819050919050565b5f612a0d612a08612a0384611df5565b6129ea565b611df5565b9050919050565b5f819050919050565b612a26836129f3565b612a3a612a3282612a14565b848454612999565b825550505050565b5f5f905090565b612a51612a42565b612a5c818484612a1d565b505050565b5b81811015612a7f57612a745f82612a49565b600181019050612a62565b5050565b601f821115612ac457612a958161296c565b612a9e8461297e565b81016020851015612aad578190505b612ac1612ab98561297e565b830182612a61565b50505b505050565b5f82821c905092915050565b5f612ae45f1984600802612ac9565b1980831691505092915050565b5f612afc8383612ad5565b9150826002028217905092915050565b612b1582611d86565b67ffffffffffffffff811115612b2e57612b2d611b34565b5b612b38825461215e565b612b43828285612a83565b5f60209050601f831160018114612b74575f8415612b62578287015190505b612b6c8582612af1565b865550612bd3565b601f198416612b828661296c565b5f5b82811015612ba957848901518255600182019150602085019450602081019050612b84565b86831015612bc65784890151612bc2601f891682612ad5565b8355505b6001600288020188555050505b505050505050565b7f4e6f2066756e647320746f2077697468647261770000000000000000000000005f82015250565b5f612c0f601483611f29565b9150612c1a82612bdb565b602082019050919050565b5f6020820190508181035f830152612c3c81612c03565b9050919050565b7f456d657267656e6379207769746864726177616c206661696c656400000000005f82015250565b5f612c77601b83611f29565b9150612c8282612c43565b602082019050919050565b5f6020820190508181035f830152612ca481612c6b565b905091905056fea2646970667358221220d28da7313a87f1f652eea2916fb886dd92fe82bbce15a73b4127cc0e97f8ee2664736f6c634300081b0033","linkReferences":{}},"methodIdentifiers":{"createGame(string,address)":"a2e0f63d","emergencyWithdraw()":"db2e21bc","games(string)":"6d20931a","getContractBalance()":"6f9fb98a","getGame(string)":"4d92f652","isGameReadyToSettle(string)":"1d54becc","joinGame(string)":"3d536a2e","owner()":"8da5cb5b","pendingWithdrawals(address)":"f3f43703","settleGame(string,address)":"1b2d199b","settler()":"ab221a76","updateSettler(address)":"6d149b0f","withdrawPending()":"7edbceb1"},"id":21}