{"abi":[{"type":"constructor","inputs":[],"stateMutability":"nonpayable"},{"type":"receive","stateMutability":"payable"},{"type":"function","name":"createGame","inputs":[{"name":"_gameId","type":"string","internalType":"string"},{"name":"_opponent","type":"address","internalType":"address"}],"outputs":[],"stateMutability":"payable"},{"type":"function","name":"emergencyWithdraw","inputs":[],"outputs":[],"stateMutability":"nonpayable"},{"type":"function","name":"games","inputs":[{"name":"","type":"string","internalType":"string"}],"outputs":[{"name":"gameId","type":"string","internalType":"string"},{"name":"creator","type":"address","internalType":"address"},{"name":"opponent","type":"address","internalType":"address"},{"name":"winner","type":"address","internalType":"address"},{"name":"wagerAmount","type":"uint256","internalType":"uint256"},{"name":"creatorPaid","type":"bool","internalType":"bool"},{"name":"opponentPaid","type":"bool","internalType":"bool"},{"name":"settled","type":"bool","internalType":"bool"},{"name":"createdAt","type":"uint256","internalType":"uint256"}],"stateMutability":"view"},{"type":"function","name":"getContractBalance","inputs":[],"outputs":[{"name":"","type":"uint256","internalType":"uint256"}],"stateMutability":"view"},{"type":"function","name":"getGame","inputs":[{"name":"_gameId","type":"string","internalType":"string"}],"outputs":[{"name":"","type":"tuple","internalType":"struct ChessEscrow.Game","components":[{"name":"gameId","type":"string","internalType":"string"},{"name":"creator","type":"address","internalType":"address"},{"name":"opponent","type":"address","internalType":"address"},{"name":"winner","type":"address","internalType":"address"},{"name":"wagerAmount","type":"uint256","internalType":"uint256"},{"name":"creatorPaid","type":"bool","internalType":"bool"},{"name":"opponentPaid","type":"bool","internalType":"bool"},{"name":"settled","type":"bool","internalType":"bool"},{"name":"createdAt","type":"uint256","internalType":"uint256"}]}],"stateMutability":"view"},{"type":"function","name":"isGameReadyToSettle","inputs":[{"name":"_gameId","type":"string","internalType":"string"}],"outputs":[{"name":"","type":"bool","internalType":"bool"}],"stateMutability":"view"},{"type":"function","name":"joinGame","inputs":[{"name":"_gameId","type":"string","internalType":"string"}],"outputs":[],"stateMutability":"payable"},{"type":"function","name":"owner","inputs":[],"outputs":[{"name":"","type":"address","internalType":"address"}],"stateMutability":"view"},{"type":"function","name":"pendingWithdrawals","inputs":[{"name":"","type":"address","internalType":"address"}],"outputs":[{"name":"","type":"uint256","internalType":"uint256"}],"stateMutability":"view"},{"type":"function","name":"settleGame","inputs":[{"name":"_gameId","type":"string","internalType":"string"},{"name":"_winner","type":"address","internalType":"address"}],"outputs":[],"stateMutability":"nonpayable"},{"type":"function","name":"settler","inputs":[],"outputs":[{"name":"","type":"address","internalType":"address"}],"stateMutability":"view"},{"type":"function","name":"updateSettler","inputs":[{"name":"_newSettler","type":"address","internalType":"address"}],"outputs":[],"stateMutability":"nonpayable"},{"type":"function","name":"withdrawPending","inputs":[],"outputs":[],"stateMutability":"nonpayable"},{"type":"event","name":"GameCreated","inputs":[{"name":"gameId","type":"string","indexed":false,"internalType":"string"},{"name":"gameIdHash","type":"bytes32","indexed":true,"internalType":"bytes32"},{"name":"creator","type":"address","indexed":true,"internalType":"address"},{"name":"wagerAmount","type":"uint256","indexed":false,"internalType":"uint256"}],"anonymous":false},{"type":"event","name":"GameJoined","inputs":[{"name":"gameId","type":"string","indexed":false,"internalType":"string"},{"name":"gameIdHash","type":"bytes32","indexed":true,"internalType":"bytes32"},{"name":"joiner","type":"address","indexed":true,"internalType":"address"},{"name":"wagerAmount","type":"uint256","indexed":false,"internalType":"uint256"}],"anonymous":false},{"type":"event","name":"GameSettled","inputs":[{"name":"gameId","type":"bytes32","indexed":true,"internalType":"bytes32"},{"name":"winner","type":"address","indexed":true,"internalType":"address"},{"name":"totalWinnings","type":"uint256","indexed":false,"internalType":"uint256"}],"anonymous":false},{"type":"event","name":"SettlerUpdated","inputs":[{"name":"oldSettler","type":"address","indexed":true,"internalType":"address"},{"name":"newSettler","type":"address","indexed":true,"internalType":"address"}],"anonymous":false}],"bytecode":{"object":"0x6080604052348015600e575f5ffd5b50335f5f6101000a81548173ffffffffffffffffffffffffffffffffffffffff021916908373ffffffffffffffffffffffffffffffffffffffff1602179055503360015f6101000a81548173ffffffffffffffffffffffffffffffffffffffff021916908373ffffffffffffffffffffffffffffffffffffffff160217905550612d148061009b5f395ff3fe6080604052600436106100c5575f3560e01c80636f9fb98a1161007e578063a2e0f63d11610058578063a2e0f63d14610262578063ab221a761461027e578063db2e21bc146102a8578063f3f43703146102be576100cc565b80636f9fb98a146101f85780637edbceb1146102225780638da5cb5b14610238576100cc565b80631b2d199b146100d05780631d54becc146100f85780633d536a2e146101345780634d92f652146101505780636d149b0f1461018c5780636d20931a146101b4576100cc565b366100cc57005b5f5ffd5b3480156100db575f5ffd5b506100f660048036038101906100f19190611cb7565b6102fa565b005b348015610103575f5ffd5b5061011e60048036038101906101199190611d11565b610770565b60405161012b9190611d72565b60405180910390f35b61014e60048036038101906101499190611d11565b610a28565b005b34801561015b575f5ffd5b5061017660048036038101906101719190611d11565b610df6565b6040516101839190611ee3565b60405180910390f35b348015610197575f5ffd5b506101b260048036038101906101ad9190611f03565b611091565b005b3480156101bf575f5ffd5b506101da60048036038101906101d59190611d11565b611250565b6040516101ef99989796959493929190611f94565b60405180910390f35b348015610203575f5ffd5b5061020c6113bb565b6040516102199190612026565b60405180910390f35b34801561022d575f5ffd5b506102366113c2565b005b348015610243575f5ffd5b5061024c611533565b604051610259919061203f565b60405180910390f35b61027c60048036038101906102779190611cb7565b611557565b005b348015610289575f5ffd5b506102926118aa565b60405161029f919061203f565b60405180910390f35b3480156102b3575f5ffd5b506102bc6118cf565b005b3480156102c9575f5ffd5b506102e460048036038101906102df9190611f03565b611a6f565b6040516102f19190612026565b60405180910390f35b60015f9054906101000a900473ffffffffffffffffffffffffffffffffffffffff1673ffffffffffffffffffffffffffffffffffffffff163373ffffffffffffffffffffffffffffffffffffffff1614610389576040517f08c379a0000000000000000000000000000000000000000000000000000000008152600401610380906120c8565b60405180910390fd5b815f60028260405161039b9190612120565b90815260200160405180910390205f0180546103b690612163565b9050116103f8576040517f08c379a00000000000000000000000000000000000000000000000000000000081526004016103ef906121dd565b60405180910390fd5b826002816040516104099190612120565b908152602001604051809103902060050160029054906101000a900460ff1615610468576040517f08c379a000000000000000000000000000000000000000000000000000000000815260040161045f90612245565b60405180910390fd5b5f6002856040516104799190612120565b90815260200160405180910390209050806005015f9054906101000a900460ff1680156104b457508060050160019054906101000a900460ff165b6104f3576040517f08c379a00000000000000000000000000000000000000000000000000000000081526004016104ea906122d3565b60405180910390fd5b806001015f9054906101000a900473ffffffffffffffffffffffffffffffffffffffff1673ffffffffffffffffffffffffffffffffffffffff168473ffffffffffffffffffffffffffffffffffffffff16148061059e5750806002015f9054906101000a900473ffffffffffffffffffffffffffffffffffffffff1673ffffffffffffffffffffffffffffffffffffffff168473ffffffffffffffffffffffffffffffffffffffff16145b6105dd576040517f08c379a00000000000000000000000000000000000000000000000000000000081526004016105d490612361565b60405180910390fd5b5f600282600401546105ef91906123ac565b905060018260050160026101000a81548160ff02191690831515021790555084826003015f6101000a81548173ffffffffffffffffffffffffffffffffffffffff021916908373ffffffffffffffffffffffffffffffffffffffff1602179055505f8573ffffffffffffffffffffffffffffffffffffffff16826040516106759061241a565b5f6040518083038185875af1925050503d805f81146106af576040519150601f19603f3d011682016040523d82523d5f602084013e6106b4565b606091505b5050905080610711578160035f8873ffffffffffffffffffffffffffffffffffffffff1673ffffffffffffffffffffffffffffffffffffffff1681526020019081526020015f205f828254610709919061242e565b925050819055505b8573ffffffffffffffffffffffffffffffffffffffff1687805190602001207ffce0354c00ab4af4f14f27d7f87c8dd1af58253004b4438717419da2b4a899dd8460405161075f9190612026565b60405180910390a350505050505050565b5f815f6002826040516107839190612120565b90815260200160405180910390205f01805461079e90612163565b9050116107e0576040517f08c379a00000000000000000000000000000000000000000000000000000000081526004016107d7906121dd565b60405180910390fd5b5f6002846040516107f19190612120565b9081526020016040518091039020604051806101200160405290815f8201805461081a90612163565b80601f016020809104026020016040519081016040528092919081815260200182805461084690612163565b80156108915780601f1061086857610100808354040283529160200191610891565b820191905f5260205f20905b81548152906001019060200180831161087457829003601f168201915b50505050508152602001600182015f9054906101000a900473ffffffffffffffffffffffffffffffffffffffff1673ffffffffffffffffffffffffffffffffffffffff1673ffffffffffffffffffffffffffffffffffffffff168152602001600282015f9054906101000a900473ffffffffffffffffffffffffffffffffffffffff1673ffffffffffffffffffffffffffffffffffffffff1673ffffffffffffffffffffffffffffffffffffffff168152602001600382015f9054906101000a900473ffffffffffffffffffffffffffffffffffffffff1673ffffffffffffffffffffffffffffffffffffffff1673ffffffffffffffffffffffffffffffffffffffff16815260200160048201548152602001600582015f9054906101000a900460ff161515151581526020016005820160019054906101000a900460ff161515151581526020016005820160029054906101000a900460ff1615151515815260200160068201548152505090508060a001518015610a1157508060c001515b8015610a1f57508060e00151155b92505050919050565b805f600282604051610a3a9190612120565b90815260200160405180910390205f018054610a5590612163565b905011610a97576040517f08c379a0000000000000000000000000000000000000000000000000000000008152600401610a8e906121dd565b60405180910390fd5b81600281604051610aa89190612120565b908152602001604051809103902060050160029054906101000a900460ff1615610b07576040517f08c379a0000000000000000000000000000000000000000000000000000000008152600401610afe90612245565b60405180910390fd5b5f600284604051610b189190612120565b908152602001604051809103902090508060050160019054906101000a900460ff1615610b7a576040517f08c379a0000000000000000000000000000000000000000000000000000000008152600401610b71906124ab565b60405180910390fd5b80600401543414610bc0576040517f08c379a0000000000000000000000000000000000000000000000000000000008152600401610bb790612539565b60405180910390fd5b806001015f9054906101000a900473ffffffffffffffffffffffffffffffffffffffff1673ffffffffffffffffffffffffffffffffffffffff163373ffffffffffffffffffffffffffffffffffffffff1603610c51576040517f08c379a0000000000000000000000000000000000000000000000000000000008152600401610c48906125c7565b60405180910390fd5b5f73ffffffffffffffffffffffffffffffffffffffff16816002015f9054906101000a900473ffffffffffffffffffffffffffffffffffffffff1673ffffffffffffffffffffffffffffffffffffffff1614610d3957806002015f9054906101000a900473ffffffffffffffffffffffffffffffffffffffff1673ffffffffffffffffffffffffffffffffffffffff163373ffffffffffffffffffffffffffffffffffffffff1614610d38576040517f08c379a0000000000000000000000000000000000000000000000000000000008152600401610d2f9061262f565b60405180910390fd5b5b33816002015f6101000a81548173ffffffffffffffffffffffffffffffffffffffff021916908373ffffffffffffffffffffffffffffffffffffffff16021790555060018160050160016101000a81548160ff0219169083151502179055503373ffffffffffffffffffffffffffffffffffffffff1684805190602001207f7789950c6db8d19009699e837fcbf29f313337db13096388534e609a2734c8d78634604051610de892919061264d565b60405180910390a350505050565b610dfe611a84565b815f600282604051610e109190612120565b90815260200160405180910390205f018054610e2b90612163565b905011610e6d576040517f08c379a0000000000000000000000000000000000000000000000000000000008152600401610e64906121dd565b60405180910390fd5b600283604051610e7d9190612120565b9081526020016040518091039020604051806101200160405290815f82018054610ea690612163565b80601f0160208091040260200160405190810160405280929190818152602001828054610ed290612163565b8015610f1d5780601f10610ef457610100808354040283529160200191610f1d565b820191905f5260205f20905b815481529060010190602001808311610f0057829003601f168201915b50505050508152602001600182015f9054906101000a900473ffffffffffffffffffffffffffffffffffffffff1673ffffffffffffffffffffffffffffffffffffffff1673ffffffffffffffffffffffffffffffffffffffff168152602001600282015f9054906101000a900473ffffffffffffffffffffffffffffffffffffffff1673ffffffffffffffffffffffffffffffffffffffff1673ffffffffffffffffffffffffffffffffffffffff168152602001600382015f9054906101000a900473ffffffffffffffffffffffffffffffffffffffff1673ffffffffffffffffffffffffffffffffffffffff1673ffffffffffffffffffffffffffffffffffffffff16815260200160048201548152602001600582015f9054906101000a900460ff161515151581526020016005820160019054906101000a900460ff161515151581526020016005820160029054906101000a900460ff16151515158152602001600682015481525050915050919050565b5f5f9054906101000a900473ffffffffffffffffffffffffffffffffffffffff1673ffffffffffffffffffffffffffffffffffffffff163373ffffffffffffffffffffffffffffffffffffffff161461111f576040517f08c379a0000000000000000000000000000000000000000000000000000000008152600401611116906126eb565b60405180910390fd5b5f73ffffffffffffffffffffffffffffffffffffffff168173ffffffffffffffffffffffffffffffffffffffff160361118d576040517f08c379a000000000000000000000000000000000000000000000000000000000815260040161118490612753565b60405180910390fd5b5f60015f9054906101000a900473ffffffffffffffffffffffffffffffffffffffff1690508160015f6101000a81548173ffffffffffffffffffffffffffffffffffffffff021916908373ffffffffffffffffffffffffffffffffffffffff1602179055508173ffffffffffffffffffffffffffffffffffffffff168173ffffffffffffffffffffffffffffffffffffffff167f7c72fae177c59a6c85f9a5eca78d204b4a8ad5b668e5beb8c24464870af7160c60405160405180910390a35050565b6002818051602081018201805184825260208301602085012081835280955050505050505f91509050805f01805461128790612163565b80601f01602080910402602001604051908101604052809291908181526020018280546112b390612163565b80156112fe5780601f106112d5576101008083540402835291602001916112fe565b820191905f5260205f20905b8154815290600101906020018083116112e157829003601f168201915b505050505090806001015f9054906101000a900473ffffffffffffffffffffffffffffffffffffffff1690806002015f9054906101000a900473ffffffffffffffffffffffffffffffffffffffff1690806003015f9054906101000a900473ffffffffffffffffffffffffffffffffffffffff1690806004015490806005015f9054906101000a900460ff16908060050160019054906101000a900460ff16908060050160029054906101000a900460ff16908060060154905089565b5f47905090565b5f60035f3373ffffffffffffffffffffffffffffffffffffffff1673ffffffffffffffffffffffffffffffffffffffff1681526020019081526020015f205490505f8111611445576040517f08c379a000000000000000000000000000000000000000000000000000000000815260040161143c906127bb565b60405180910390fd5b5f60035f3373ffffffffffffffffffffffffffffffffffffffff1673ffffffffffffffffffffffffffffffffffffffff1681526020019081526020015f20819055505f3373ffffffffffffffffffffffffffffffffffffffff16826040516114ac9061241a565b5f6040518083038185875af1925050503d805f81146114e6576040519150601f19603f3d011682016040523d82523d5f602084013e6114eb565b606091505b505090508061152f576040517f08c379a000000000000000000000000000000000000000000000000000000000815260040161152690612823565b60405180910390fd5b5050565b5f5f9054906101000a900473ffffffffffffffffffffffffffffffffffffffff1681565b5f82511161159a576040517f08c379a00000000000000000000000000000000000000000000000000000000081526004016115919061288b565b60405180910390fd5b5f6002836040516115ab9190612120565b90815260200160405180910390205f0180546115c690612163565b905014611608576040517f08c379a00000000000000000000000000000000000000000000000000000000081526004016115ff906128f3565b60405180910390fd5b5f341161164a576040517f08c379a000000000000000000000000000000000000000000000000000000000815260040161164190612981565b60405180910390fd5b6040518061012001604052808381526020013373ffffffffffffffffffffffffffffffffffffffff1681526020018273ffffffffffffffffffffffffffffffffffffffff1681526020015f73ffffffffffffffffffffffffffffffffffffffff1681526020013481526020016001151581526020015f151581526020015f15158152602001428152506002836040516116e39190612120565b90815260200160405180910390205f820151815f0190816117049190612b3f565b506020820151816001015f6101000a81548173ffffffffffffffffffffffffffffffffffffffff021916908373ffffffffffffffffffffffffffffffffffffffff1602179055506040820151816002015f6101000a81548173ffffffffffffffffffffffffffffffffffffffff021916908373ffffffffffffffffffffffffffffffffffffffff1602179055506060820151816003015f6101000a81548173ffffffffffffffffffffffffffffffffffffffff021916908373ffffffffffffffffffffffffffffffffffffffff1602179055506080820151816004015560a0820151816005015f6101000a81548160ff02191690831515021790555060c08201518160050160016101000a81548160ff02191690831515021790555060e08201518160050160026101000a81548160ff02191690831515021790555061010082015181600601559050503373ffffffffffffffffffffffffffffffffffffffff1682805190602001207f3a8d26670e409ca1f05a7b107ffc3639792b07a3af6dcd82861b0555bd6326cc843460405161189e92919061264d565b60405180910390a35050565b60015f9054906101000a900473ffffffffffffffffffffffffffffffffffffffff1681565b5f5f9054906101000a900473ffffffffffffffffffffffffffffffffffffffff1673ffffffffffffffffffffffffffffffffffffffff163373ffffffffffffffffffffffffffffffffffffffff161461195d576040517f08c379a0000000000000000000000000000000000000000000000000000000008152600401611954906126eb565b60405180910390fd5b5f4790505f81116119a3576040517f08c379a000000000000000000000000000000000000000000000000000000000815260040161199a90612c58565b60405180910390fd5b5f5f5f9054906101000a900473ffffffffffffffffffffffffffffffffffffffff1673ffffffffffffffffffffffffffffffffffffffff16826040516119e89061241a565b5f6040518083038185875af1925050503d805f8114611a22576040519150601f19603f3d011682016040523d82523d5f602084013e611a27565b606091505b5050905080611a6b576040517f08c379a0000000000000000000000000000000000000000000000000000000008152600401611a6290612cc0565b60405180910390fd5b5050565b6003602052805f5260405f205f915090505481565b604051806101200160405280606081526020015f73ffffffffffffffffffffffffffffffffffffffff1681526020015f73ffffffffffffffffffffffffffffffffffffffff1681526020015f73ffffffffffffffffffffffffffffffffffffffff1681526020015f81526020015f151581526020015f151581526020015f151581526020015f81525090565b5f604051905090565b5f5ffd5b5f5ffd5b5f5ffd5b5f5ffd5b5f601f19601f8301169050919050565b7f4e487b71000000000000000000000000000000000000000000000000000000005f52604160045260245ffd5b611b6f82611b29565b810181811067ffffffffffffffff82111715611b8e57611b8d611b39565b5b80604052505050565b5f611ba0611b10565b9050611bac8282611b66565b919050565b5f67ffffffffffffffff821115611bcb57611bca611b39565b5b611bd482611b29565b9050602081019050919050565b828183375f83830152505050565b5f611c01611bfc84611bb1565b611b97565b905082815260208101848484011115611c1d57611c1c611b25565b5b611c28848285611be1565b509392505050565b5f82601f830112611c4457611c43611b21565b5b8135611c54848260208601611bef565b91505092915050565b5f73ffffffffffffffffffffffffffffffffffffffff82169050919050565b5f611c8682611c5d565b9050919050565b611c9681611c7c565b8114611ca0575f5ffd5b50565b5f81359050611cb181611c8d565b92915050565b5f5f60408385031215611ccd57611ccc611b19565b5b5f83013567ffffffffffffffff811115611cea57611ce9611b1d565b5b611cf685828601611c30565b9250506020611d0785828601611ca3565b9150509250929050565b5f60208284031215611d2657611d25611b19565b5b5f82013567ffffffffffffffff811115611d4357611d42611b1d565b5b611d4f84828501611c30565b91505092915050565b5f8115159050919050565b611d6c81611d58565b82525050565b5f602082019050611d855f830184611d63565b92915050565b5f81519050919050565b5f82825260208201905092915050565b8281835e5f83830152505050565b5f611dbd82611d8b565b611dc78185611d95565b9350611dd7818560208601611da5565b611de081611b29565b840191505092915050565b611df481611c7c565b82525050565b5f819050919050565b611e0c81611dfa565b82525050565b611e1b81611d58565b82525050565b5f61012083015f8301518482035f860152611e3c8282611db3565b9150506020830151611e516020860182611deb565b506040830151611e646040860182611deb565b506060830151611e776060860182611deb565b506080830151611e8a6080860182611e03565b5060a0830151611e9d60a0860182611e12565b5060c0830151611eb060c0860182611e12565b5060e0830151611ec360e0860182611e12565b50610100830151611ed8610100860182611e03565b508091505092915050565b5f6020820190508181035f830152611efb8184611e21565b905092915050565b5f60208284031215611f1857611f17611b19565b5b5f611f2584828501611ca3565b91505092915050565b5f82825260208201905092915050565b5f611f4882611d8b565b611f528185611f2e565b9350611f62818560208601611da5565b611f6b81611b29565b840191505092915050565b611f7f81611c7c565b82525050565b611f8e81611dfa565b82525050565b5f610120820190508181035f830152611fad818c611f3e565b9050611fbc602083018b611f76565b611fc9604083018a611f76565b611fd66060830189611f76565b611fe36080830188611f85565b611ff060a0830187611d63565b611ffd60c0830186611d63565b61200a60e0830185611d63565b612018610100830184611f85565b9a9950505050505050505050565b5f6020820190506120395f830184611f85565b92915050565b5f6020820190506120525f830184611f76565b92915050565b7f4f6e6c7920736574746c65722063616e2063616c6c20746869732066756e63745f8201527f696f6e0000000000000000000000000000000000000000000000000000000000602082015250565b5f6120b2602383611f2e565b91506120bd82612058565b604082019050919050565b5f6020820190508181035f8301526120df816120a6565b9050919050565b5f81905092915050565b5f6120fa82611d8b565b61210481856120e6565b9350612114818560208601611da5565b80840191505092915050565b5f61212b82846120f0565b915081905092915050565b7f4e487b71000000000000000000000000000000000000000000000000000000005f52602260045260245ffd5b5f600282049050600182168061217a57607f821691505b60208210810361218d5761218c612136565b5b50919050565b7f47616d6520646f6573206e6f74206578697374000000000000000000000000005f82015250565b5f6121c7601383611f2e565b91506121d282612193565b602082019050919050565b5f6020820190508181035f8301526121f4816121bb565b9050919050565b7f47616d6520616c726561647920736574746c65640000000000000000000000005f82015250565b5f61222f601483611f2e565b915061223a826121fb565b602082019050919050565b5f6020820190508181035f83015261225c81612223565b9050919050565b7f426f746820706c6179657273206d7573742068617665207061696420746865695f8201527f7220776167657273000000000000000000000000000000000000000000000000602082015250565b5f6122bd602883611f2e565b91506122c882612263565b604082019050919050565b5f6020820190508181035f8301526122ea816122b1565b9050919050565b7f57696e6e6572206d757374206265206f6e65206f66207468652067616d6520705f8201527f61727469636970616e7473000000000000000000000000000000000000000000602082015250565b5f61234b602b83611f2e565b9150612356826122f1565b604082019050919050565b5f6020820190508181035f8301526123788161233f565b9050919050565b7f4e487b71000000000000000000000000000000000000000000000000000000005f52601160045260245ffd5b5f6123b682611dfa565b91506123c183611dfa565b92508282026123cf81611dfa565b915082820484148315176123e6576123e561237f565b5b5092915050565b5f81905092915050565b50565b5f6124055f836123ed565b9150612410826123f7565b5f82019050919050565b5f612424826123fa565b9150819050919050565b5f61243882611dfa565b915061244383611dfa565b925082820190508082111561245b5761245a61237f565b5b92915050565b7f47616d6520616c72656164792068617320616e206f70706f6e656e74000000005f82015250565b5f612495601c83611f2e565b91506124a082612461565b602082019050919050565b5f6020820190508181035f8301526124c281612489565b9050919050565b7f576167657220616d6f756e74206d757374206d617463682067616d65207761675f8201527f6572000000000000000000000000000000000000000000000000000000000000602082015250565b5f612523602283611f2e565b915061252e826124c9565b604082019050919050565b5f6020820190508181035f83015261255081612517565b9050919050565b7f43726561746f722063616e6e6f74206a6f696e207468656972206f776e2067615f8201527f6d65000000000000000000000000000000000000000000000000000000000000602082015250565b5f6125b1602283611f2e565b91506125bc82612557565b604082019050919050565b5f6020820190508181035f8301526125de816125a5565b9050919050565b7f4f6e6c7920737065636966696564206f70706f6e656e742063616e206a6f696e5f82015250565b5f612619602083611f2e565b9150612624826125e5565b602082019050919050565b5f6020820190508181035f8301526126468161260d565b9050919050565b5f6040820190508181035f8301526126658185611f3e565b90506126746020830184611f85565b9392505050565b7f4f6e6c79206f776e65722063616e2063616c6c20746869732066756e6374696f5f8201527f6e00000000000000000000000000000000000000000000000000000000000000602082015250565b5f6126d5602183611f2e565b91506126e08261267b565b604082019050919050565b5f6020820190508181035f830152612702816126c9565b9050919050565b7f536574746c65722063616e6e6f74206265207a65726f206164647265737300005f82015250565b5f61273d601e83611f2e565b915061274882612709565b602082019050919050565b5f6020820190508181035f83015261276a81612731565b9050919050565b7f4e6f2070656e64696e67207769746864726177616c73000000000000000000005f82015250565b5f6127a5601683611f2e565b91506127b082612771565b602082019050919050565b5f6020820190508181035f8301526127d281612799565b9050919050565b7f5769746864726177616c206661696c65640000000000000000000000000000005f82015250565b5f61280d601183611f2e565b9150612818826127d9565b602082019050919050565b5f6020820190508181035f83015261283a81612801565b9050919050565b7f496e76616c69642067616d6520494400000000000000000000000000000000005f82015250565b5f612875600f83611f2e565b915061288082612841565b602082019050919050565b5f6020820190508181035f8301526128a281612869565b9050919050565b7f47616d6520616c726561647920657869737473000000000000000000000000005f82015250565b5f6128dd601383611f2e565b91506128e8826128a9565b602082019050919050565b5f6020820190508181035f83015261290a816128d1565b9050919050565b7f576167657220616d6f756e74206d7573742062652067726561746572207468615f8201527f6e20300000000000000000000000000000000000000000000000000000000000602082015250565b5f61296b602383611f2e565b915061297682612911565b604082019050919050565b5f6020820190508181035f8301526129988161295f565b9050919050565b5f819050815f5260205f209050919050565b5f6020601f8301049050919050565b5f82821b905092915050565b5f600883026129fb7fffffffffffffffffffffffffffffffffffffffffffffffffffffffffffffffff826129c0565b612a0586836129c0565b95508019841693508086168417925050509392505050565b5f819050919050565b5f612a40612a3b612a3684611dfa565b612a1d565b611dfa565b9050919050565b5f819050919050565b612a5983612a26565b612a6d612a6582612a47565b8484546129cc565b825550505050565b5f5f905090565b612a84612a75565b612a8f818484612a50565b505050565b5b81811015612ab257612aa75f82612a7c565b600181019050612a95565b5050565b601f821115612af757612ac88161299f565b612ad1846129b1565b81016020851015612ae0578190505b612af4612aec856129b1565b830182612a94565b50505b505050565b5f82821c905092915050565b5f612b175f1984600802612afc565b1980831691505092915050565b5f612b2f8383612b08565b9150826002028217905092915050565b612b4882611d8b565b67ffffffffffffffff811115612b6157612b60611b39565b5b612b6b8254612163565b612b76828285612ab6565b5f60209050601f831160018114612ba7575f8415612b95578287015190505b612b9f8582612b24565b865550612c06565b601f198416612bb58661299f565b5f5b82811015612bdc57848901518255600182019150602085019450602081019050612bb7565b86831015612bf95784890151612bf5601f891682612b08565b8355505b6001600288020188555050505b505050505050565b7f4e6f2066756e647320746f2077697468647261770000000000000000000000005f82015250565b5f612c42601483611f2e565b9150612c4d82612c0e565b602082019050919050565b5f6020820190508181035f830152612c6f81612c36565b9050919050565b7f456d657267656e6379207769746864726177616c206661696c656400000000005f82015250565b5f612caa601b83611f2e565b9150612cb582612c76565b602082019050919050565b5f6020820190508181035f830152612cd781612c9e565b905091905056fea2646970667358221220a3593402bfc766a6e04ca7185bf95035de4eca0e8957e0a653934dc3a004b47e64736f6c634300081b0033","linkReferences":{}},"methodIdentifiers":{"createGame(string,address)":"a2e0f63d","emergencyWithdraw()":"db2e21bc","games(string)":"6d20931a","getContractBalance()":"6f9fb98a","getGame(string)":"4d92f652","isGameReadyToSettle(string)":"1d54becc","joinGame(string)":"3d536a2e","owner()":"8da5cb5b","pendingWithdrawals(address)":"f3f43703","settleGame(string,address)":"1b2d199b","settler()":"ab221a76","updateSettler(address)":"6d149b0f","withdrawPending()":"7edbceb1"},"id":16}